:100000000C9433050C9452050C9452050C94520533
:100010000C9452050C9452050C9452050C94520504
:100020000C9452050C9452050C9452050C945205F4
:100030000C9476050C9452050C9452050C945205C0
:100040000C9452050C9452050C947E1B0C94741B5A
:100050000C9452050C9452050C9452050C945205C4
:100060000C9452050C9452050C9452050C945205B4
:100070000C9452050C9452050C9452050C945205A4
:100080000C9452050C9452050C9452050C94520594
:100090000C9452052420001B5B751B5B43001B5B0B
:1000A000731B5B4B001B5B75001B5B441B5B731B73
:1000B0005B4B001B5B44001B5B43001B5B324B1B19
:1000C0005B3530442420001B5B324B1B5B353044D6
:1000D0002420007368656C6C3A20696E76616C69E7
:1000E00064206572726F722D636F64650A007368B5
:1000F000656C6C3A20636F6D6D616E64206E6F7419
:1001000020666F756E640A002072747200203E00D3
:100110002536753A20253878202575002536753A1C
:10012000202530386C782025750073656E64006773
:10013000657400736574002D20666F7263652074AA
:1001400078206F7264657220737570706F72740AB4
:1001500000206D6573736167657320747820627524
:10016000666665720A002D2000206D6573736167F5
:100170006573207278206275666665720A002D20AC
:10018000000A6275696C6420776974683A0A0048ED
:10019000617264776172652056657273696F6E3A39
:1001A000200020202028636F6D70696C6564204AF0
:1001B000616E2020362032303039290A00466972BB
:1001C0006D776172652056657273696F6E3A2000B3
:1001D0001B5B48001B5B3B481B5B324A003A2030EC
:1001E00078007368656C6C20726573746172740A50
:1001F00000436F6D6D616E64206E6F74207965745D
:1002000020696D706C656D656E7465642100556E56
:100210006B6E6F776E206F7074696F6E2E205368EF
:100220006F756C6420626520226F6E22206F7220D1
:10023000226F666622006F6666006F6E00746572DC
:100240006D0066696C7465720062697472617465D0
:1002500000206672616D65730A00727472006E6FC1
:100260006E2D727472002C2000657874656E646562
:1002700064007374616E64617264006F6E6C7920E7
:1002800000616C6C006D61736B203A2025346C78D2
:100290000A20206964203A2025346C780A006D61B8
:1002A000736B203A2025386C780A20206964203A44
:1002B0002025386C780A0063757272656E746C79EB
:1002C000206E6F2073746174656D656E7420706F3D
:1002D0007369626C652E0A0066696C7465722063CE
:1002E000757272656E746C79206E6F7420757365AB
:1002F000642E0A00636F756C64206E6F74207265E3
:1003000061642066696C7465722E00496E76616C5A
:1003100069642066696C746572206E756D626572C1
:1003200000256400206672616D65730A00616C6C63
:10033000002072747200206E6F6E2D727472002035
:10034000616E6400206F6E6C7920657874656E64F0
:10035000656400206F6E6C79207374616E646172E5
:10036000640025386C782025386C78200020202007
:10037000202020202D20202020202020202D0A0099
:10038000202020202020202A202020202020202063
:100390002A0A00253264203A20002020203A20201A
:1003A0002020206D61736B20202020202020696494
:1003B00020206F7074696F6E730A2D2D2D3A2D2DCC
:1003C0002D2D2D2D2D2D2D2D2D2D2D2D2D2D2D2D5D
:1003D0002D2D2D2D2D2D2D2D2D2D0A0066696C74A2
:1003E000657200496E76616C69642062697472613D
:1003F0007465002569006E6F20706172616D6574AF
:1004000065727300436F756C64206E6F7420736542
:10041000742066696C74657200496E76616C6964FB
:10042000206368617261637465727320696E204332
:10043000414E2D6D61736B206F7220696400436FB4
:10044000756C64206E6F742064697361626C6520E2
:1004500066696C7465720064697361626C6500251D
:100460006C7820256C78006E6F6E2D727472006E41
:1004700072007274720072007374616E64617264EF
:1004800000737464007300657874656E646564005D
:10049000657874006500496E7661696C64206669F0
:1004A0006C746572206E756D626572002569004E10
:1004B0006F20506172616D65746572730057726F61
:1004C0006E6720666F726D617400436F756C642097
:1004D0006E6F742073656E64206D657373616765FC
:1004E00000476976656E2064617461206C656E6793
:1004F000746820646966666572732066726F6D2029
:100500006C656E677468206F662064617461207327
:1005100065676D656E740044617461207365676D15
:10052000656E7420746F206C6F6E67004F6E6C790F
:1005300020747570656C73206F6620322A6E20629D
:1005400079746520616C6C6F77656420696E2064D6
:10055000617461207365676D656E7400496E7661C4
:100560006C6964206C656E67746820636F646500F5
:10057000496E76616C696420636861726163746559
:10058000727320696E2043414E2D4944006E6F20E6
:1005900068656C70207061676520617661696C6167
:1005A000626C6520666F72207468697320636F6D7A
:1005B0006D616E640041637469766174652F446592
:1005C0006163746976617465206120313230204F37
:1005D000686D207465726D696E6174696E672072F2
:1005E00065736973746F722E0A0A007365742074E0
:1005F00065726D206F6E7C6F66660A0A00332E206E
:1006000000546F207265636569766520616C6C20AB
:100610006D6573736167657320796F752073696D9C
:10062000706C79206861766520746F2074797065CC
:100630003A0A202024207365742066696C74657200
:10064000206E203020300A6E2069732061206F6E8A
:1006500065206F6620746865206D657373616765DA
:100660002D6F626A656374732028302E2E31342911
:100670002E0A0A007365742066696C746572206EB8
:10068000756D626572205B64697361626C657C6D17
:1006900061736B2069645D0A0A00322E2000536585
:1006A000742061206E6577206269747261746520C0
:1006B000666F72207468652043414E206275732E08
:1006C0000A0A007365742062697472617465205B44
:1006D0003132357C3235307C3530307C3130303021
:1006E0005D0A0A00312E20007365742062697472FD
:1006F0006174657C66696C746572202E2E2E0A0A00
:10070000005072696E747320696E666F726D6174E9
:10071000696F6E2061626F757420746865207370F4
:10072000656369666965642066696C7465722E200C
:10073000576974686F7574206120676976656E20EB
:100740006E756D6265722074686520636F6D6D6192
:100750006E642067656E65726174657320612074D4
:1007600061626C65207769746820616E206F7665C0
:100770007276696577206F6620616C6C2066696CA3
:100780007465722E0A006765742066696C74657200
:10079000205B6E756D6265725D0A0A004578616D59
:1007A000706C653A0A496620796F752077616E74BE
:1007B0002073656E642061206D65737361676520C9
:1007C000776974682043414E204964203078313283
:1007D0003320616E6420666F757220627974657370
:1007E000206F66206461746120796F75206861767E
:1007F0006520746F20747970653A0A202024207374
:10080000656E642031323320342061626364353692
:1008100037380A466F72206265747465722072659B
:1008200061646162696C69747920746865206172C1
:1008300067756D656E747320616E642074686520E1
:1008400064617461207475706C65732063616E20DF
:1008500062652073657061726174656420627920DD
:100860006F7074696F6E616C2077686974657370FE
:10087000616365732E0A0073656E64206964206C81
:10088000656E677468205B7274727C646174615D0C
:100890000A0A0068656C702020202D2073686F772D
:1008A00020746869732068656C700A73656E6420D3
:1008B00020202D2073656E6420612043414E2070FE
:1008C00061636B65740A736574202020202D20738A
:1008D00065742066696C7465722C2062697472613B
:1008E0007465206574632E0A676574202020202DAE
:1008F000206765742066696C74657220616E64207F
:100900006F746865722076616C7565730A737461C3
:10091000727420202D207265737461727473206F5D
:1009200075747075740A73746F702020202D207395
:10093000746F7073206F757470757420696D6D6558
:1009400064696174656C790A6C6564202020202DCF
:1009500020636F6E74726F6C204C45442073746119
:100960007475730A636C65617220202D20636C6559
:1009700061722073637265656E0A65786974202000
:10098000202D2072657374617274204156520A0AD8
:10099000546F20676574206D6F726520696E666F95
:1009A000726D6174696F6E2061626F757420612071
:1009B000737065636966696320636F6D6D616E64F2
:1009C0002074797065202268656C7020256E616DD9
:1009D0006525220A001B5B004572726F723A200087
:1009E0003F0068656C7000726573746172740065B5
:1009F0007869740068657800636C656172003E0018
:100A000073746172740073746F700062756C6B0044
:100A100076657273696F6E00452530327825303205
:100A2000780D002530347800742530337800542553
:100A300030386C7800722530337800522530386CAD
:100A400078007E6E7F620C37260C37120C370E0C46
:100A500037060C37020C37000C376364696E6F7011
:100A6000737578585B0011241FBECFEFD0E1DEBF55
:100A7000CDBF11E0A0E0B1E0E6E5F2E400E00BBF9D
:100A800002C007900D92AE35B107D9F719E0AEE577
:100A9000B1E001C01D92A03EB107E1F70E943F0600
:100AA0000C942A210C94000080911201882319F0E3
:100AB000A498A39A02C0A498A39890E021E030E003
:100AC0008227932780931201089580911101882332
:100AD00019F02F982E9A02C02F982E9890E021E0BE
:100AE00030E0822793278093110108951F920F927F
:100AF0000FB60F9211242F933F938F939F93809162
:100B00006401882309F480C01D990EC0809163019F
:100B1000882381F4809165019091660101969093FC
:100B200066018093650106C010926601109265010E
:100B30001092630180916501909166010B97A0F07E
:100B4000109266011092650191E0909363011092FA
:100B5000600110925F0180916201882319F49093E3
:100B6000620102C01092620180915F019091600168
:100B700001969093600180935F0181599140C8F084
:100B80001092600110925F01109264011092660150
:100B9000109265018091620180930001882321F405
:100BA0008F988C988E9A03C08F9A8C988E988B9879
:100BB0004DC0809161018F5F809361018B3008F49B
:100BC00045C01092610180916201909101018823DA
:100BD00049F48F988C98992311F08E9801C08E9AC1
:100BE0008B9808C08E988B98992311F08F9801C02C
:100BF0008F9A8C988091010190E021E030E082276B
:100C000093278093010122C01D991AC0809165012C
:100C100090916601019690936601809365018639F3
:100C20009105A0F0109266011092650191E09093F9
:100C3000640180910001809362019093630106C07A
:100C40001092660110926501109263019F918F913D
:100C50003F912F910F900FBE0F901F9018950E94FB
:100C6000CE06882319F48FEF9FEF08950E94D906CE
:100C700090E008950E94EB0680E090E00895EF92E6
:100C8000FF921F93CF93DF93CDB7DEB729970FB6AF
:100C9000F894DEBF0FBECDBF82E091E09093DB09F8
:100CA0008093DA099093DD098093DC095F9AA49A16
:100CB0002F9A879A849A869A839A8F988C988E987E
:100CC0008B98579A9C9A279AA3982E989B9A269A23
:100CD0004098389A84EC99E090938900809388003A
:100CE00082E080936F00109280008BE080938100FF
:100CF00025982D9A999A989AA19AA0986F986E988B
:100D0000779A769A0E94520A789428EC30E080E92B
:100D100091E00197F1F721503040C9F7A4982F983E
:100D200084E00E94F81B7E010894E11CF11C909164
:100D3000000180911001891729F1909310019923E6
:100D400019F09130D9F408C08F988C988E9A8B98AE
:100D50008FEF0E944A1C16C08F9A8C988E988B98A1
:100D600089E0F70111928A95E9F71BE0B701812F1D
:100D70000E94A41C1F5F1F3029F0F8CF8F988C9819
:100D80008E988B9880911001882319F40E94960AFE
:100D9000CECF813061F60E94CB12C9CF8CB199279A
:100DA00087FD9095809590958827990F881F9927A2
:100DB0000895A198000080B1A19A90E00895982F1D
:100DC0006699FECF8FEF81B992B9A09A0000A098E2
:100DD00011B882B908951F93182F8A3019F48DE045
:100DE0000E94DF06812F0E94DF061F910895CF9396
:100DF000DF93EC0102C00E94EB0689918823D9F7AA
:100E0000DF91CF910895CF93DF93EC0102C00E9450
:100E1000EB06FE01219684918823C9F7DF91CF91DB
:100E200008951F93182F82958F708A3010F0895C77
:100E300001C0805D0E94DF06812F8F708A3010F024
:100E4000895C01C0805D0E94DF061F910895FC014E
:100E50008081813610F0875505C0813410F08753AA
:100E600001C0805390E00895EF92FF920F931F937B
:100E70008C010E942707E82EFF2434E0EE0CFF1CB3
:100E80003A95E1F7C80101960E9427078E2990E064
:100E90001F910F91FF90EF9008950F931F93CF93A1
:100EA000DF93CDB7DEB723970FB6F894DEBF0FBE42
:100EB000CDBF8B019E012F5F3F4F3B832A8350E0C4
:100EC000BE016E5F7F4F0E94C313F8016083718380
:100ED00082839383EA81FB818081882341F090E0C3
:100EE0000E948C20892B19F480E090E00CC020E057
:100EF0008091D8099091D909829709F421E081E085
:100F00002827822F90E023960FB6F894DEBF0FBEFD
:100F1000CDBFDF91CF911F910F9108950F931F9334
:100F2000CF93DF93CDB7DEB761970FB6F894DEBFEE
:100F30000FBECDBF4AE050E08E010F5F1F4FB801DA
:100F40000E94FA14C8010E94F70661960FB6F89441
:100F5000DEBF0FBECDBFDF91CF911F910F910895DE
:100F6000CF93DF93FB0191838083EC018A819B8186
:100F7000938382837B836A83A281B3816D937C9305
:100F8000DF91CF910895FC01A281B381808191818D
:100F900011969C938E930190F081E02DB383A283F0
:100FA0000895813019F48EEE90E002C083ED90E058
:100FB0000E9403070895FF920F931F93CF93DF932F
:100FC000EC018C0101C02196CE01801BF82E888196
:100FD000882329F090E00E949420892BA1F38F2D83
:100FE00090E0DF91CF911F910F91FF9008950F93A3
:100FF0001F93CF93DF93062FEC0101C021968881C8
:101000008823D9F090E00E949420892BB9F715C06D
:1010100021968881882339F090E00E949420892BC2
:10102000B9F301C021968881882329F090E00E94BD
:101030009420892BB9F71F5F01C010E0101749F702
:10104000CE01DF91CF911F910F91089561E00E9431
:10105000F70708951F93CF93DF93182F8091CB0349
:10106000882309F055C081E08093CB031092C90317
:101070001092CA038091C4039091C503E091C2030A
:10108000F091C303208131818E179F0729F430939B
:10109000C5032093C40320C0A281B38111963C9361
:1010A0002E930190F081E02DB383A283A091C2031F
:1010B000B091C303E091C403F091C5031196FC9372
:1010C000EE9382819381ED019B838A83B383A28314
:1010D000EA81FB81B183A083E091C403F091C50351
:1010E0000280F381E02D86A9882321F4F093C503C3
:1010F000E093C403E091C403F091C503F093C303EC
:10110000E093C2031482E091C203F091C30316AAD4
:101110008091CA03813029F41B3509F067C082E051
:10112000C8C0823009F065C01134C9F4E091C2032F
:10113000F091C3030280F381E02D8091C40390916C
:10114000C503E817F90709F451C0F093C303E0930E
:10115000C20386A98093C90387EC90E019C01234BA
:1011600009F5E091C203F091C3038091C40390910B
:10117000C503E817F907D1F10190F081E02DF09354
:10118000C303E093C20386A98093C9038BEB90E06D
:101190000E9403078091C2039091C30304960E94AA
:1011A000F70624C01334A9F44091C903242F332730
:1011B00027FD3095E091C203F091C30386A990E02A
:1011C000281739079CF44F5F4093C90387EB90E0E1
:1011D0000BC0143459F48091C90318163CF48150A3
:1011E0008093C90383EB90E00E9403071092CA0327
:1011F000C3C01D3009F460C01E3020F4183009F05F
:1012000067C006C01B3109F453C01F3709F060C026
:101210008091C90318160CF0AFC0E091C203F091A1
:10122000C30386A9815086AB8091C9038150809306
:10123000C903E091C203F091C3033496282F3327EA
:1012400027FD3095DF01A20FB31F349786A9482FE1
:1012500050E02417350709F14F5F5F4F421B530BD6
:10126000BD016F5F7F4FCD010E94DA1489EA90E0E3
:101270000E9403078091C2039091C30304962091BA
:10128000C903332727FD3095820F931F0E94F7066D
:1012900085EA90E00E9403076FC01C9288E00E94DC
:1012A000DF0680E20E94DF0688E00E94DF0664C05D
:1012B00081E08093CA0360C0E091C203F091C30350
:1012C00086A9E80FF11D148282E08093CB0354C0FD
:1012D0008091C90381330CF04FC0E091C203F091BB
:1012E000C3033496282F332727FD3095DF01A20F43
:1012F000B31F349786A9482F50E02417350751F1C2
:10130000421B530BBD01CD0101960E94DA14E091FE
:10131000C203F091C3038091C903992787FD90957B
:10132000E80FF91F14838EE990E00E940307809173
:10133000C2039091C30304962091C903332727FD6C
:101340003095820F931F0E94F70687E990E00E9474
:10135000030706C01C93FD011182812F0E94DF0646
:101360008091C9038F5F8093C903E091C203F0911C
:10137000C30386A98F5F86ABDF91CF911F9108953C
:101380009F92AF92BF92CF92DF92EF92FF920F9314
:101390001F93CF93DF938091C803882349F484E996
:1013A00090E00E9403071092CB0381E08093C80372
:1013B0008091C8038230A1F40E94CE068823C1F038
:1013C0000091C6031091C7030E94D906682F80E0E0
:1013D00090E0F8010995882359F01092C80308C0DD
:1013E0000E94CE06882321F00E94D9060E942A0876
:1013F0008091CB03823009F049C01092CB03109248
:10140000C8038AE00E94EB06E090C203F090C30399
:10141000F70186A98823D1F190909B01C091990191
:10142000D0919A01CC2484E0A82EB12CAE0CBF1C24
:1014300028C08A81082F10E0F701E00FF11FD48047
:101440008D2D90E00E949420892B11F4DD20B9F4B9
:1014500068817981A801C5010E94CC14892B79F497
:10146000EB81FC81F093C703E093C60360E0C50104
:101470000995882359F482E08093C80307C0C39478
:101480002596C914B1F681E00E94D107DF91CF9172
:101490001F910F91FF90EF90DF90CF90BF90AF9092
:1014A0009F900895CF93DF931092C8031092CB03BF
:1014B0001092C9031092CA0387E191E090939A01B8
:1014C0008093990180915D0180939B011092C703E5
:1014D0001092C603ACE9B1E0ED01E6969D011196CC
:1014E0003C932E9380919E0190919F01FD019383E7
:1014F0008283B0939F01A0939E0182819381FC011E
:10150000B183A083FD0114821882D796E796F3E099
:10151000A23CBF0721F73093C5032093C403309347
:10152000C3032093C203DF91CF910895EF92FF92FE
:101530000F931F93CF93DF93CDB7DEB760970FB6AE
:10154000F894DEBF0FBECDBF0E94C0090E94411CAF
:10155000882309F464C0CE0101960E94DA1F882313
:1015600009F45DC00E818D81202F30E04F855889B0
:1015700081FF1BC03F932F9389819A81AB81BC81EE
:10158000BF93AF939F938F935F934F938CE191E0C1
:101590009F938F930E941B158DB79EB70A960FB627
:1015A000F8949EBF0FBE8DBF16C03F932F938981C5
:1015B0009A819F938F935F934F9380E191E09F93E4
:1015C0008F930E941B15EDB7FEB738960FB6F894AF
:1015D000FEBF0FBEEDBF8D8180FD1AC0002339F420
:1015E00087E0E82EF12CEC0EFD1E10E00EC08DE021
:1015F00091E00E940307F4CF80E20E94DF06F7012A
:1016000081917F010E9411071F5F1017A9F704C085
:1016100088E091E00E9403078AE00E94EB06609652
:101620000FB6F894DEBF0FBECDBFDF91CF911F91F3
:101630000F91FF90EF900895109268011092690148
:101640001092670181E090E0089581E08093680145
:101650008093670181E090E0089584ED91E00E941D
:10166000030780ED91E00E94030781E090E0089578
:1016700082EE91E00E94030788E190E02DE00FB632
:10168000F894A895809360000FBE20936000FFCF70
:101690001F93182F85ED99E00E940307812F90E09A
:1016A0000E948E078DE60E94DF061F9108958DEB44
:1016B00091E00E94030781E090E00E948E078EE295
:1016C0000E94DF0683E090E00E948E0782EA91E0AC
:1016D0000E9403078FE891E00E94030781E090E0F9
:1016E0000E948E078EE20E94DF0683E090E00E9457
:1016F0008E078AE00E94EB0681E891E00E940307D2
:101700008EE791E00E94030780E290E00E948E073E
:1017100089E691E00E94030786E691E00E940307B4
:1017200080E490E00E948E0781E591E00E9403072B
:1017300087E391E00E94030781E090E008950F9312
:101740001F938C0188ED99E00E940307C8010E9455
:1017500003078AE00E94EB061F910F9108951F93E3
:10176000162F662391F0633019F481E090E00FC0EA
:10177000862F0E94DF068DED91E00E940307812FE6
:101780000E9411078AE00E94EB0680E090E01F9122
:101790000895CF93DF9361E00E94F707EC010E9468
:1017A000DB07882319F483E998E015C044E050E092
:1017B0006AE271E0CE010E94CC14892B79F481E0B9
:1017C0000E94480B87E798E00E94030780E00E9490
:1017D000480B8CE997E00E94030763C043E050E0A8
:1017E0006FE271E0CE010E94CC14892B69F481E094
:1017F0000E94480B86E897E00E94030780E00E9461
:10180000480B81E097E0E7CF43E050E063E371E00D
:10181000CE010E94CC14892B09F03FC081E00E94C8
:10182000480B88EE96E00E94030780E00E94480B78
:1018300084EE96E00E94030781E00E94480B83EC4F
:1018400096E00E94030780E00E94480B8EE996E034
:101850000E9403078AE996E00E94030781E00E9444
:10186000480B84E796E00E94030780E00E94480B43
:1018700081E096E00E9403078DEF95E00E94030748
:1018800081E00E94480B8BEE95E00E94030780E008
:101890000E94480B85EB95E09ECF8DE895E00E9475
:1018A0009F0B81E090E0DF91CF9108952F923F92BE
:1018B0004F925F926F927F928F929F92AF92BF9260
:1018C000CF92DF92EF92FF920F931F93CF93DF930C
:1018D000CDB7DEB72B970FB6F894DEBF0FBECDBFE6
:1018E00061E00E94F7078C010E94DB07F82E882335
:1018F00009F444C146E050E06CED73E0C8010E9479
:10190000CC14892B09F03AC126E0F21609F036C151
:10191000C8010E9426088C010E94DB07882309F079
:1019200090C08AE993E00E940307EE24FF2456E367
:10193000252E53E0352E4FE3442E43E0542E34E45D
:10194000632E33E0732E23E5822E23E0922E9DE654
:10195000A92E93E0B92E80E8C82E83E0D82EFF92FE
:10196000EF9283E993E09F938F930E941B15BE0132
:101970006D5F7F4F8E2D0E94721D982F81500F90AA
:101980000F900F900F908E3F10F0C6014FC0923015
:1019900011F4C5014BC08B819C81AD81BE81BF9389
:1019A000AF939F938F938F819885A985BA85BF93B5
:1019B000AF939F938F9322E633E03F932F930E9440
:1019C0001B158B85982F9C702DB73EB7265F3F4F18
:1019D0000FB6F8943EBF0FBE2DBF992371F098301B
:1019E00011F4C40101C0C3010E9403078B858370F9
:1019F00041F0C2010E94030704C0837011F410E09B
:101A000001C011E08B858370823011F4C10104C0E4
:101A1000833021F481E393E00E940307112321F432
:101A20008DE293E00E94030784E293E00E940307A3
:101A30000894E11CF11C3FE0E316F10409F49EC098
:101A40008ECFCE0101969F938F9381E293E09F9377
:101A50008F931F930F930E9441152DB73EB72A5FB6
:101A60003F4F0FB6F8943EBF0FBE2DBF019729F42C
:101A700089819A818F3091051CF08BE093E009C039
:101A8000BE016D5F7F4F0E94721D882329F484EF91
:101A900092E00E949F0B72C0823019F488ED92E0B0
:101AA0006BC08F3F19F487EB92E066C08B858C701A
:101AB0002B813C814D815E81EF80F88409851A85F8
:101AC0008830B9F05F934F933F932F931F930F93F9
:101AD000FF92EF928EE992E09F938F930E941B15E5
:101AE0008DB79EB70A960FB6F8949EBF0FBE8DBFF6
:101AF00017C05F934F933F932F931F930F93FF92C2
:101B0000EF9285E892E09F938F930E941B152DB76B
:101B10003EB7265F3F4F0FB6F8943EBF0FBE2DBFB6
:101B20008B858F7019F481E892E022C08BE792E0F8
:101B30000E9403078B858C7081F0883019F482E74E
:101B400092E002C089E692E00E9403078B858370D1
:101B500021F086E692E00E9403078B858370823035
:101B600019F48EE592E004C0833021F48AE592E016
:101B70000E94030781E592E00E94030781E090E064
:101B80002B960FB6F894DEBF0FBECDBFDF91CF917D
:101B90001F910F91FF90EF90DF90CF90BF90AF908B
:101BA0009F908F907F906F905F904F903F902F907D
:101BB00008950F931F93CF93DF93CDB7DEB722978E
:101BC0000FB6F894DEBF0FBECDBF61E00E94F707ED
:101BD0008C010E94DB07882319F486EF93E032C062
:101BE000CE0101969F938F9383EF93E09F938F9302
:101BF0001F930F930E9441152DB73EB72A5F3F4FA9
:101C00000FB6F8943EBF0FBE2DBF0197C9F489816E
:101C10009A818D37910511F484E00AC08A3F9105BD
:101C200011F485E005C031E0843F930721F486E09C
:101C30000E94F81B09C0885E934011F487E0F8CF3A
:101C400083EE93E00E949F0B81E090E022960FB616
:101C5000F894DEBF0FBECDBFDF91CF911F910F91E2
:101C60000895EF92FF920F931F93CF93DF93CDB719
:101C7000DEB72B970FB6F894DEBF0FBECDBF0E9424
:101C800026088C010E94DB07882319F48FEA94E070
:101C9000F8C0CE0101969F938F938CEA94E09F93B6
:101CA0008F931F930F930E9441152DB73EB72A5F64
:101CB0003F4F0FB6F8943EBF0FBE2DBF019721F4E2
:101CC00089819A810F971CF086E994E0DAC0C801F7
:101CD0000E9426088C010E94DB07E82EFB8431E07D
:101CE000831751F441E050E064E974E0C8010E94B8
:101CF000CC14892BD1F01CC083E0E81651F443E0EA
:101D000050E060E974E0C8010E94CC14892B69F0AE
:101D100017C028E0E21691F548E050E067E874E06B
:101D2000C8010E94CC14892B99F43CE0F32A1DC011
:101D300041E050E065E874E0C8010E94CC140FC097
:101D400043E050E061E874E0C8010E94CC1407C091
:101D500048E050E068E774E0C8010E94CC14892B89
:101D600069F483EFF82228E0F22AFB86C8010E947A
:101D700026088C010E94DB07E82E03C033EFF32214
:101D8000FB86FB8481E0E81641F441E050E066E721
:101D900074E0C8010E94CC140AC023E0E21669F482
:101DA00043E050E062E774E0C8010E94CC14892B44
:101DB00031F533E0F32AFB861BC082E0E81641F4DC
:101DC00042E050E06FE674E0C8010E94CC140AC003
:101DD00027E0E216A1F447E050E067E674E0C801AE
:101DE0000E94CC14892B59F48B858C7F82608B8761
:101DF000C8010E9426088C010E94DB0703C03CEF4B
:101E0000F322FB8663E0E62EF12CEC0EFD1EFF9222
:101E1000EF92CE0107969F938F938FE594E09F9367
:101E20008F931F930F930E9441152DB73EB7285FE4
:101E30003F4F0FB6F8943EBF0FBE2DBF0297C9F0BB
:101E4000C8010E94DB07873089F447E050E067E56E
:101E500074E0C8010E94CC14892B41F489810E944E
:101E60004A1C882381F48EE394E00BC089E194E05E
:101E700008C0B70189810E94A41C882321F484E052
:101E800094E00E949F0B81E090E02B960FB6F894AF
:101E9000DEBF0FBECDBFDF91CF911F910F91FF909D
:101EA000EF9008951F93CF93DF9361E00E94F707AF
:101EB000EC010E94DB07182F47E050E069E472E074
:101EC000CE010E94CC14892B39F4173029F460E03C
:101ED000CE010E94D90D43C046E050E062E472E0BA
:101EE000CE010E94CC14892B39F4163029F460E01D
:101EF000CE010E94310E33C044E050E06DE372E049
:101F0000CE010E94CC14892B31F5143021F5CE017D
:101F10000E942608EC010E94DB07182F42E050E0E7
:101F20006AE372E0CE010E94CC14892B21F41230B6
:101F300011F4409A14C043E050E066E372E0CE0131
:101F40000E94CC14892B21F4133011F4409807C05F
:101F50008EE092E002C081EF91E00E949F0B81E051
:101F600090E0DF91CF911F910895AF92BF92CF92F1
:101F7000DF92EF92FF920F931F93CF93DF93CDB732
:101F8000DEB760970FB6F894DEBF0FBECDBF0097E7
:101F900009F494C061E00E94F7078C010E94DB07FE
:101FA000982F8150883008F085C08D81943010F0D2
:101FB000826001C08D7F8D8340E1BE016F5F7F4FE6
:101FC000C8010E944D07882319F480E795E074C08A
:101FD000C8010E9426088C010E94DB07813029F489
:101FE000F80180818053893018F08CE595E064C059
:101FF0008E83C8010E9426087C010E94DB07D82E30
:10200000F3E08F1769F443E050E063E171E0C7014A
:102010000E94EC14892B21F48D8181608D8341C055
:102020008D818E7F8D83CC2477E0A72EB12CAC0ED2
:10203000BD1E2FC0D0FE03C08CE295E03DC08701DD
:10204000F801808190E00E948120892B99F1F801AC
:10205000818190E00E948120892B61F1C8010E945A
:102060003407F501EC0DF11D8083C394F8E0FC15F5
:1020700018F487E195E020C08EEFD80E19F00E5FBE
:102080001F4FDECFC7010E9426087C010E94DB079C
:10209000D82EDD2079F68E81C81619F081EE94E0F5
:1020A0000BC0CE0101960E94FF1E882339F48AECF2
:1020B00094E002C08DEB94E00E949F0B81E090E0E1
:1020C00060960FB6F894DEBF0FBECDBFDF91CF9103
:1020D0001F910F91FF90EF90DF90CF90BF90AF9046
:1020E0000895CF92DF92EF92FF920F931F93CF93B9
:1020F000DF93CDB7DEB760970FB6F894DEBF0FBEA3
:10210000CDBF8D8182608E7F8D8388E08E8380E05D
:1021100092E0A0E0B0E089839A83AB83BC837E0128
:102120000894E11CF11CC7010E94FF1E80E49FE19E
:102130000197F1F78FEF91E0A0E0B0E089839A83F7
:10214000AB83BC83C7010E94FF1E8EEF91E0A0E02D
:10215000B0E089839A83AB83BC83C7010E94FF1ED2
:102160008DEF91E0A0E0B0E089839A83AB83BC83DC
:10217000C7010E94FF1E00EA1FE0C8010197F1F7A6
:102180008CEF91E0A0E0B0E089839A83AB83BC83BD
:10219000C7010E94FF1EC8010197F1F78BEF91E084
:1021A000A0E0B0E089839A83AB83BC83C7010E941F
:1021B000FF1E28EC30E080E991E00197F1F7215013
:1021C0003040C9F78AEF91E0A0E0B0E089839A83BC
:1021D000AB83BC838E010F5F1F4FC8010E94FF1E9F
:1021E00080E49CE90197F1F7C12CE1E0DE2EE12CBF
:1021F000F12CC982DA82EB82FC82C8010E94FF1EA8
:102200000894C108D108E108F1089CEEC916D10470
:10221000E104F10471F781E090E060960FB6F89464
:10222000DEBF0FBECDBFDF91CF911F910F91FF9009
:10223000EF90DF90CF9008955F926F927F928F9290
:102240009F92AF92BF92CF92DF92EF92FF920F9345
:102250001F93CF93DF93CDB7DEB760970FB6F89497
:10226000DEBF0FBECDBF8C01FC018081823529F01D
:10227000843519F084E0552403C089E05524539433
:1022800070E090E09C012F5F3F4F621773070CF4E2
:1022900095C03801680E791EF30180818053893022
:1022A00008F08CC08E83F8019081923711F092353E
:1022B00039F46217730709F081C08D8181600BC00A
:1022C00090E0880F991F280F391F6217730709F0D4
:1022D00075C08D818E7F8D83C8010196552069F16F
:1022E0000E943407A82EBB24BA2CAA24C801039646
:1022F0000E943407882EC80105960E943407E82EF4
:10230000FF24FE2CEE24C80107960E94340799246E
:10231000A828B928CC24DD246501BB24AA2490E098
:10232000E82AF92A00E010E0AE28BF28C02AD12A06
:10233000A982BA82CB82DC8213C00E942707E82ED2
:10234000FF24FE2CEE24C80102960E94340790E080
:10235000E82AF92A00E010E0E982FA820B831C8364
:10236000550C8D818D7F85298D8380FD1BC0830158
:102370000F5F1F4FEE24FF2487E0C82ED12CCC0E18
:10238000DD1E09C0C8010E943407F601EA0DF11DE7
:1023900080830E5F1F4FAE2C0894E11CF11C8E81D0
:1023A000A81680F3CE0101960E94FF1E20E030E0C7
:1023B000882311F021E030E0C90102C080E090E004
:1023C00060960FB6F894DEBF0FBECDBFDF91CF9100
:1023D0001F910F91FF90EF90DF90CF90BF90AF9043
:1023E0009F908F907F906F905F900895EF92FF92F3
:1023F0001F93CF93DF93CDB7DEB729970FB6F8942D
:10240000DEBF0FBECDBFFC01662309F4B8C08081DA
:10241000833599F18435C8F48D3409F4ADC08E3418
:1024200050F4863409F489C08C3409F46AC08334CA
:1024300009F0A0C075C08F3409F445C08F3408F48A
:1024400076C0823509F096C032C08D3609F494C04A
:102450008E3650F4863509F472C08A3509F479C095
:10246000843509F087C023C0833709F485C08437D9
:10247000F1F0823709F07EC01AC0918190539930F3
:1024800008F07AC080916A01882309F075C0623033
:1024900009F072C0973009F46FC0983009F497E0E2
:1024A000892F0E94F81B81E08093970163C080917F
:1024B0006A01882309F460C0CF010E941C1188239F
:1024C00009F45AC057C080916A01882309F054C0AA
:1024D00080919701882309F44FC082E00E94FD1F7C
:1024E000FE01319689E0DF011D928A95E9F71BE034
:1024F0007F01B701812F0E94A41C1F5F1F30C9F705
:102500000BC080916A018823B9F5809197018823D7
:1025100099F180E00E94FD1F81E080936A012AC04A
:1025200080916A01882341F110926A0123C08EE4F0
:102530000E94DF0680E00E94110780E007C086E568
:102540000E94DF0683E10E94110783E10E941107C8
:1025500011C080916A01882379F4623069F490E0B7
:102560008181803309F091E090936B011092E70034
:102570001092E6008DE001C087E00E94DF062996F8
:102580000FB6F894DEBF0FBECDBFDF91CF911F9184
:10259000FF90EF900895EF92FF920F931F93CF93C8
:1025A000DF93CDB7DEB760970FB6F894DEBF0FBEEE
:1025B000CDBF0E94411C882309F4ABC0CE01019617
:1025C0000E94DA1F882309F4A4C080916A0188233D
:1025D00009F49FC00E818D81982F927080FF2CC0CE
:1025E0009923B9F089819A81AB81BC81BF93AF9364
:1025F0009F938F938BE39AE09F938F930E941B1579
:102600008DB79EB706960FB6F8949EBF0FBE8DBFCE
:102610000EC089819A819F938F9385E39AE09F935F
:102620008F930E941B150F900F900F900F90802F8B
:10263000805D0E94DF063AC09923B9F089819A81B2
:10264000AB81BC81BF93AF939F938F938EE29AE04F
:102650009F938F930E941B15EDB7FEB736960FB66A
:10266000F894FEBF0FBEEDBF0EC089819A819F9383
:102670008F9388E29AE09F938F930E941B150F908F
:102680000F900F900F90802F805D0E94DF0667E013
:10269000E62EF12CEC0EFD1E10E006C0F701819134
:1026A0007F010E9411071F5F1017C1F780916B0116
:1026B000882371F08F8598899F938F9383E29AE0A6
:1026C0009F938F930E941B150F900F900F900F9068
:1026D0008DE00E94DF061DC00E94D90660916E0148
:1026E0008D3061F0E62FF0E0E159FE4F8083862FB8
:1026F0008F5F80936E01883270F008C0E62FF0E0A3
:10270000E159FE4F1082C8010E94F61110926E012D
:1027100002C00FE611E00E94CE068823E9F60E946F
:10272000F61F8C01282F912F80916D01811721F4C4
:1027300080916C018017D1F0892F90E09F938F9347
:10274000822F90E09F938F9388E19AE09F938F93DD
:102750000E941B1500936C0110936D018DB79EB7FD
:1027600006960FB6F8949EBF0FBE8DBF60960FB64B
:10277000F894DEBF0FBECDBFDF91CF911F910F91B7
:10278000FF90EF900895A3E0B0E0E9ECF3E10C9442
:10279000F3209B838A831B016A016115710519F07F
:1027A000FB0191838083C114D10449F0C6010297D3
:1027B000839728F040E050E060E070E0E7C0EA81F5
:1027C000FB811191FB83EA83812F90E00E948C2092
:1027D000892BA9F71D3241F4EA81FB811191FB831A
:1027E000EA83F1E0F98308C01B3229F4EA81FB8116
:1027F0001191FB83EA831982C114D10421F0F0E125
:10280000CF16D10411F51033A1F4EA81FB81808148
:10281000883711F0883569F4EA81FB81118132969D
:10282000FB83EA83F981F260F98350E1C52ED12C54
:102830000CC0C114D10449F4103321F448E0C42E73
:10284000D12C03C03AE0C32ED12C8AE0C816D104A3
:1028500049F090E1C916D104B9F0E8E0CE16D104F0
:10286000E1F409C029E9822E29E9922E29E9A22E54
:1028700029E1B22E1FC09FEF892E9FEF992E9FEF67
:10288000A92E9FE1B92E16C08FEF882E8FEF982EBC
:102890008FEFA82E8FE0B82E0DC09601442737FD8C
:1028A0004095542F6FEF7FEF8FEF9FEF0E94D12065
:1028B00049015A0140E050E060E070E030E026015C
:1028C000662457FC6094762C212F20532A3060F028
:1028D000812F81548A3110F4275006C0812F8156F0
:1028E0008A3160F5212F2755822F90E08C159D05A8
:1028F0002CF537FD1DC084169506A606B706A8F070
:10290000E22EFF2400E010E0CB01BA01A301920106
:102910000E949E20AB01BC014E0D5F1D601F711F08
:102920004E155F056007710710F43FEF01C031E0FD
:10293000EA81FB811191FB83EA83C6CF2114310424
:1029400079F0332321F08A819B81019706C0F981B8
:10295000F1FF06C08A819B810297F10191838083F8
:10296000F981F0FF07C070956095509541955F4FD4
:102970006F4F7F4F37FF0AC082E290E09093D909F2
:102980008093D8094FEF5FEF6FEF7FEFCB01BA0174
:10299000E2E123960C940F21FB01DC0141505040F1
:1029A00030F08D910590801919F40020B9F7881B3B
:1029B000990B08956817790768F4FB01DC01E40FAF
:1029C000F51FA40FB51F02C002900E924150504057
:1029D000D8F708950C94101AFB01DC0141505040C7
:1029E00030F08D910190801919F40020B9F7881BFF
:1029F000990B0895FB019F01E8944230C4F04532E1
:102A0000B4F44A3029F497FB1EF4909581959F4FBA
:102A1000642F77270E94BD20805D8A330CF0895D8A
:102A20008193CB010097A1F716F45DE251931082D8
:102A3000C9010C94241AA2E0B0E0E1E2F5E10C94A3
:102A40000321FE01379661917191FA83E983E09148
:102A5000DC09F091DD0983818860838349815A8193
:102A60008091DC099091DD090E945C15E091DC0900
:102A7000F091DD092381277F2383E2E022960C94E5
:102A80001F21A0E1B0E0E7E4F5E10C9403218DE023
:102A90008E838D899E899C838B83AE01475E5F4FB9
:102AA0005A8349836F89788DCE0103960E94C81896
:102AB000E2E060960C941F212F923F925F926F92FA
:102AC0007F928F929F92AF92BF92CF92DF92EF92BE
:102AD000FF920F931F93CF93DF93CDB7DEB72B9762
:102AE0000FB6F894DEBF0FBECDBF3C014B016A01AB
:102AF000FC0117821682838181FD03C08FEF9FEF57
:102B0000BBC11E010894211C311CF3013381F40167
:102B100033FD859133FF81914F01882309F4A9C1C9
:102B2000853239F433FD859133FF81914F01853230
:102B300029F4B30190E00E94741AE7CF982FAA24D9
:102B400010E055241032B0F49B3269F09C3228F426
:102B5000903251F0933271F40BC09D3239F09033C2
:102B600049F411602AC01260146027C0186025C0A3
:102B7000106123C017FD2AC0292F20532A3088F462
:102B800016FF07C08AE0A89EC0011124A22EA80E3D
:102B900014C08AE0589EC0011124522E580E1062B3
:102BA0000CC09E3221F416FD64C1106406C09C3630
:102BB00011F4106802C0983649F4F40133FD959180
:102BC00033FF91914F01992309F0BCCF892F855490
:102BD000833018F08052833038F424E030E0C20EA5
:102BE000D31E8FE389830FC0933631F0933781F082
:102BF000933509F056C020C0F6018081898322E018
:102C000030E0C20ED31E710181E0A82EB12C12C09B
:102C1000F601E080F18016FD03C06FEF7FEF02C088
:102C20006A2D70E022E030E0C20ED31EC7010E9480
:102C3000191A5C011F7713C0F601E080F18016FDC0
:102C400003C06FEF7FEF02C06A2D70E022E030E03A
:102C5000C20ED31EC7010E94051A5C01106813FF43
:102C600007C01BC0B30180E290E00E94741A5A941E
:102C7000852D90E0A816B906A8F30FC0F70117FD3F
:102C8000859117FF81917F01B30190E00E94741A32
:102C900051105A940894A108B108A114B10471F715
:102CA000E5C0943611F0993669F517FF0AC0F601B0
:102CB000608171818281938124E030E0C20ED31E55
:102CC0000DC0F601808191819C01B901882777FDB3
:102CD0008095982F42E050E0C40ED51E012F0F764C
:102CE00097FF08C090958095709561957F4F8F4FA5
:102CF0009F4F00682AE030E0A1010E94BA1AB82E66
:102D0000B2183DC0953721F41F7E2AE030E01CC088
:102D1000197F9F3661F0903720F4983509F0A9C0EB
:102D20000FC0903739F0983709F0A3C004C028E0ED
:102D300030E00AC0106114FD146020E130E004C0EE
:102D400014FD166020E132E017FF08C0F601608133
:102D500071818281938144E050E008C0F601808156
:102D60009181BC0180E090E042E050E0C40ED51EAD
:102D7000A1010E94BA1AB82EB218012F0F7706FFD0
:102D800009C00E7FBA1430F404FF06C002FD04C06F
:102D90000F7E02C01B2D01C01A2D04FF0CC0FE01C6
:102DA000EB0DF11D8081803311F4097E08C01F5F97
:102DB00002FF05C003C0802F867809F01F5FE02E58
:102DC00003FD14C000FF0FC0151510F0AB2C0BC095
:102DD000AB2CA50CA11A152D06C0B30180E290E022
:102DE0000E94741A1F5F1515C0F304C0151510F466
:102DF000511A01C05524E4FE10C0B30180E390E0F5
:102E00000E94741AE2FE1EC0E1FE03C088E590E055
:102E100002C088E790E0B3010CC08E2D867891F057
:102E2000E1FE02C08BE201C080E207FD8DE2B3014A
:102E300090E00E94741A06C0B30180E390E00E9403
:102E4000741AAA94BA14C0F3BA94F101EB0DF11DEF
:102E50008081B30190E00E94741ABB2039F0F4CF56
:102E6000B30180E290E00E94741A5A945520C1F791
:102E70004CCEF301868197812B960FB6F894DEBF76
:102E80000FBECDBFDF91CF911F910F91FF90EF90BB
:102E9000DF90CF90BF90AF909F908F907F906F907A
:102EA0005F903F902F900895FC0120FD08C023FD06
:102EB00005C022FF02C0738362835183408308955B
:102EC00044FF02C033E011C046FF02C034E00DC031
:102ED000DB01FC01AA0FBB1FEE1FFF1F1094D1F7EF
:102EE0006A0F7B1F8E1F9F1F31E0660F771F881FA1
:102EF000991F3150D1F7620F711D811D911D0895E9
:102F00000F931F93CF93DF938C01C8010E94341A53
:102F1000EC0197FD08C00E948C20892BB1F7B80105
:102F2000CE010E94A01ACE01DF91CF911F910F9187
:102F30000895A0E0B0E0EFE9F7E10C94FB20EC018C
:102F4000062F5A01122F0E94341AAC018B3219F04D
:102F50008D3251F41068015009F467C0CE010E940F
:102F6000341AAC0197FD61C01D7F812F8073E1F49D
:102F70004033D1F4015009F442C0CE010E94341A0A
:102F8000AC0197FD3CC01260883711F0883551F4D0
:102F900010640150A1F1CE010E94341AAC019923B2
:102FA0001CF42DC016FF1061CC24DD247601242FE3
:102FB0002053283088F014FD09C02A3068F016FF2D
:102FC00005C02F7D822F8151863028F0BE01CA01B5
:102FD0000E94A01A11C02750412FC701B6010E94BC
:102FE00060176B017C011260015061F0CE010E94FC
:102FF000341AAC0197FFDBCF11FD04C016C0CC24FE
:10300000DD24760117FF08C0F094E094D094C094BA
:10301000C11CD11CE11CF11C212FB701A601C50167
:103020000E94541781E090E002C080E090E0EAE066
:10303000CDB7DEB70C941721A0E2B0E0E2E2F8E1F0
:103040000C94F9206C01962E7A018901FE013196CB
:1030500080E2DF011D928A95E9F770E030E060E0E0
:1030600040E050E0DF01F6018381F80183FD259106
:1030700083FF21918F01222309F483C02E3519F497
:103080004115510591F1872F90E08417950754F46D
:103090002D3579F12D3231F4332311F431E026C08E
:1030A0003DE206C0332319F4322F622F01C0322FC4
:1030B000832F869586958695FD01E80FF11D232FB8
:1030C000277081E090E002C0880F991F2A95E2F7EF
:1030D0002081282B2083361711F430E007C03617E3
:1030E00010F43F5FE5CF3150E3CF71E04F5F5F4FAA
:1030F000BACF332319F08E8180628E83772359F003
:10310000FE0131969E012F5D3F4F80818095819316
:10311000E217F307D1F7882483945E010894A11C79
:10312000B11CC6010E94341AAC0197FD22C08695DD
:1031300086958695F501E80FF11D808190E09A0152
:103140002770307002C0959587952A95E2F780FD2B
:1031500005C0B601CA010E94A01A0BC0E114F10417
:1031600019F0D7014D937D019A948824992019F084
:10317000D8CF882031F4E114F10429F0F70110824E
:1031800002C000E010E0C801ECE0A0960C9415210C
:103190004F925F927F928F929F92AF92BF92CF9207
:1031A000DF92EF92FF920F931F93CF93DF936C0107
:1031B000EB014A01FC011782168277245AE5452E5D
:1031C0005AE0552EF4C0802F90E00E948C20892B6D
:1031D00021F0C6010E948017EAC0053211F0102FBD
:1031E00009C0FE0113FD859113FF8191EF01853226
:1031F00069F415E2C6010E94341A97FDE4C018175D
:1032000009F4D5C0B6010E94A01AE2C08A3221F0AA
:10321000282FBB24AA2418C013FD259113FF219148
:10322000EF01BB24B394F6CFF2E0BF2A6A2D70E021
:1032300080E090E040E20E946017A62EFE0113FDA0
:10324000259113FF2191EF0120532A3068F3B1FC3F
:1032500003C0AA24AA9403C0AA2009F4B9C0022F6B
:10326000005D083619F00C36A9F40CC0FE0113FD00
:10327000259113FF2191EF01283611F0022F0AC08A
:10328000F8E0BF2A24E0B22AFE0113FD059113FFE6
:103290000191EF01002309F49BC0602F70E0C2018F
:1032A0000E94FA19892B09F493C08B2DB0FE03C03C
:1032B000EE24FF2407C0F401E080F18022E030E03A
:1032C000820E931E0E3651F4F6014681578160E05E
:1032D00070E02B2DC7010E94541769C0033699F482
:1032E00081FD02C0AA24A394C6010E94341A97FD4E
:1032F0006AC0E114F10419F0F70181937F01AA94E7
:1033000009F453C0F1CF0B3559F49E01A7016A2D82
:10331000C6010E941C18EC01892B09F441C045C06C
:10332000C6010E94801797FD4EC00F3661F100372D
:1033300028F4043629F1093649F52AC0033719F073
:10334000053721F51DC0C6010E94341A8C0197FD76
:1033500011C00E948C20892B29F0B601C8010E945F
:10336000A01A08C0E114F10419F0F70101937F01DC
:10337000AA9449F7E114F104C1F0F701108215C0D5
:10338000F0E2BF2A05C020E1B22A02C030E4B32A2D
:103390002B2DA7016A2DC6010E949917882329F4B5
:1033A000F6018381807379F413C0B0FE7394F60143
:1033B0001381FE0113FD059113FF0191EF0100231D
:1033C00009F001CF05C0772019F48FEF9FEF02C0FD
:1033D000872D90E0DF91CF911F910F91FF90EF909B
:1033E000DF90CF90BF90AF909F908F907F905F9035
:1033F0004F900895FC010590061621F00020D9F7A2
:10340000C00108953197CF010895FC0105906150E6
:1034100070400110D8F7809590958E0F9F1F0895EA
:10342000FB01DC0102C001900D9241505040D8F7E1
:103430000895FC016150704001900110D8F780950B
:1034400090958E0F9F1F0895DC01FC01672F7191ED
:103450007723E1F7329704C07C916D93708362917A
:10346000AE17BF07C8F30895CF93DF93EC012B810C
:1034700020FF14C026FF09C02F7B2B838E819F81E4
:1034800001969F838E838A812BC022FF12C0E88120
:10349000F9818081882329F420622B838FEF9FEFAD
:1034A00020C0282F332727FD30953196F983E883F4
:1034B00011C0EA85FB85CE0109959C0197FF0AC0E2
:1034C0009B812F5F3F4F11F480E101C080E2892B87
:1034D0008B83E4CF8E819F8101969F838E83822F81
:1034E00090E0DF91CF9108950F931F93CF93DF93D7
:1034F0008C01EB018B8181FF1BC082FF0DC02E81EF
:103500003F818C819D812817390764F4E881F98116
:103510000193F983E88306C0E885F985802F099532
:10352000892B31F48E819F8101969F838E8302C007
:103530000FEF1FEFC801DF91CF911F910F910895F9
:10354000AC01FB01238120FF12C026FD10C08FEFCC
:103550004F3F580761F0428320642F7D238386818B
:103560009781019797838683842F90E008958FEF4A
:103570009FEF0895FA01AA27283051F1203181F1F7
:10358000E8946F936E7F6E5F7F4F8F4F9F4FAF4F6B
:10359000B1E03ED0B4E03CD0670F781F891F9A1F7E
:1035A000A11D680F791F8A1F911DA11D6A0F711D32
:1035B000811D911DA11D20D009F468943F912AE03E
:1035C000269F11243019305D3193DEF6CF01089526
:1035D000462F4770405D4193B3E00FD0C9F7F6CF57
:1035E000462F4F70405D4A3318F0495D31FD40521F
:1035F000419302D0A9F7EACFB4E0A69597958795B5
:1036000077956795BA95C9F7009761057105089593
:103610009B01AC010A2E069457954795379527953F
:10362000BA95C9F7620F731F841F951FA01D0895D7
:1036300080919801882399F420E030E0822F8295D0
:10364000807F8093ED008091EF00807C19F4822FC1
:1036500090E008952F5F3F4F2F30310579F78FEFBE
:1036600090E00895482F50E0883070F42091DE00FB
:1036700081E090E002C0880F991F4A95E2F780959B
:1036800082238093DE0008952091DF00485050404F
:1036900081E090E002C0880F991F4A95E2F780957B
:1036A00082238093DF000895482F50E0883068F42B
:1036B0002091DE0081E090E002C0880F991F4A95BA
:1036C000E2F7282B2093DE0008952091DF00485078
:1036D000504081E090E002C0880F991F4A95E2F7C0
:1036E000282B2093DF0008951F920F920FB60F92A0
:1036F00011240F900FBE0F901F9018951F920F92DC
:103700000FB60F9211240F931F932F933F934F9354
:103710005F936F937F938F939F93AF93BF93EF9339
:10372000FF938091EC00807F803F09F44AC00091B4
:10373000ED008091EC00807F8093ED001091EC0013
:103740008091EE0086FF22C08091EE001092EE0084
:103750001092EF008CEC97E00E943E20009761F001
:103760000E94711E8CEC97E00E9463208091EF0014
:1037700080648093EF0007C0812F82958F700E9434
:10378000321B109298010E94650518C082ED99E0E5
:103790000E942420009731F00E94301F82ED99E0B2
:1037A0000E9472208091EE001092EE008091EF0056
:1037B000807180688093EF000E9454050093ED00B3
:1037C00004C08091DA008093DA00FF91EF91BF91FD
:1037D000AF919F918F917F916F915F914F913F91A9
:1037E0002F911F910F910F900FBE0F901F90189562
:1037F000E82F883018F080E090E008958091D8009C
:1038000081608093D80083E0E89FC0011124FC010F
:10381000EE5BF54FE491E093E200FC01ED5BF54FC8
:10382000E491E093E3008C5B954FFC0184918093DD
:10383000E4001092DA0080EB8093DB0087EC809349
:10384000E5008FEF0E944A1C42ED57E060E282EDF6
:1038500099E00E9458204CEC53E060E48CEC97E037
:103860000E94582082E08093D80081E090E0089583
:103870008CEC97E00E94162021E030E0822790E057
:10388000089582ED99E00E94092021E030E082272E
:1038900090E00895982F8F30F0F08F3F19F080E07E
:1038A00090E008951092DF001092DE0020E030E0FA
:1038B000822F8295807F8093ED008091EF0010929F
:1038C000EF008091EE001092EE002F5F3F4F2F30FF
:1038D0003105B9F1EDCF80E88093D8008091D9000F
:1038E00083FDFCCF1092D8008091D90082FDFCCFDF
:1038F000892F8295807F8093ED008091EE00109259
:10390000EE001092EF00892F0E94321B9091ED0083
:1039100020E030E0822F8295807F8093ED008091BF
:10392000EF008093EF002F5F3F4F2F30310591F76D
:103930009093ED0082E08093D8008091D90082FFBF
:10394000FCCF81E090E00895482FFB018F3018F004
:1039500080E090E0089580E88093D8008091D900BD
:1039600083FDFCCF1092D8008091D90082FDFCCF5E
:10397000842F8295807F8093ED001092EE0010924C
:10398000EF0030853C703C3009F045C0808191816A
:10399000A281B381282F220F220F220F2093F00043
:1039A00065E0B695A795979587956A95D1F7809329
:1039B000F100892F9A2FAB2FBB278093F200892F1C
:1039C0009A2FAB2FBB278093F30084819581A6812A
:1039D000B781282F220F220F220F21602093F4009D
:1039E00025E0B695A795979587952A95D1F7809369
:1039F000F500892F9A2FAB2FBB278093F600892FD4
:103A00009A2FAB2FBB278093F7008091EF00806146
:103A10008093EF0030C01092F0001092F10080818E
:103A20009181A281B381282F2295220F207E20939D
:103A3000F20053E0969587955A95E1F78093F3004D
:103A4000332321F081E08093F40002C01092F4004F
:103A50001092F50084819581A681B781282F229547
:103A6000220F207E2093F60023E0969587952A95D5
:103A7000E1F78093F70080858370682F81FF0CC089
:103A80008091F40084608093F40060FF05C0809111
:103A9000F00084608093F0008091EF008068809354
:103AA000EF00842F0E94541B9091ED0020E030E045
:103AB000822F8295807F8093ED008091EF0080932C
:103AC000EF002F5F3F4F2F30310591F79093ED00BE
:103AD00082E08093D8008091D90082FFFCCF81E002
:103AE00090E008956F927F928F929F92AF92BF92D3
:103AF000CF92DF92EF92FF920F931F93FB018F30D3
:103B000018F080E090E0E0C08295807F8093ED0027
:103B10008091EF00807C19F482E090E0D5C0809124
:103B2000EF00807C803819F08FEF90E0CDC080915D
:103B3000F40082FF0BC08091F000908582FF02C0EC
:103B4000936002C09C7F9260908703C080858C7FC9
:103B500080878091F40080FF7CC08091EF0084FF1B
:103B600078C080858C608087E090F400E694E694CD
:103B7000E694FF2400E010E08091F5006090F600EC
:103B80002091F7007724882499247DE0660C771C27
:103B9000881C991C7A95D1F76E287F28802A912A53
:103BA00030E040E050E065E1220F331F441F551F15
:103BB0006A95D1F7622A732A842A952A90E055E003
:103BC000880F991F5A95E1F7A0E0B0E0682A792A9A
:103BD0008A2A9B2A6482758286829782A090F0004E
:103BE000A694A694A694BB24CC24DD242091F100B5
:103BF0008091F200E090F30090E0A0E0B0E04DE0B2
:103C0000880F991FAA1FBB1F4A95D1F78A299B29A4
:103C1000AC29BD29FF2400E010E035E1EE0CFF1CCB
:103C2000001F111F3A95D1F78E299F29A02BB12B88
:103C300030E015E0220F331F1A95E1F740E050E025
:103C4000822B932BA42BB52B86219721A821B92158
:103C500035C08091F400908580FF03C0937F986009
:103C600001C0937F90878091F6008295869587703A
:103C700090E02091F70030E073E0220F331F7A9537
:103C8000E1F7282B392BC901A0E0B0E084839583AC
:103C9000A683B7834091F20042954695477050E065
:103CA0008091F30090E063E0880F991F6A95E1F737
:103CB000842B952B82239323A0E0B0E08083918313
:103CC000A283B38381E090E01F910F91FF90EF906A
:103CD000DF90CF90BF90AF909F908F907F906F902C
:103CE0000895CF93DF93CDB7DEB724970FB6F8943E
:103CF000DEBF0FBECDBFFC0145814093EF00348194
:103D000031FF22C08091EF0080618093EF008081BD
:103D10009181A281B381282F220F220F220F20939D
:103D2000F00053E0880F991FAA1FBB1F5A95D1F7C7
:103D300089839A83AB83BC838A818093F1008B81D2
:103D40008093F2008C8113C01092F0001092F10069
:103D500080819181A281B381282F2295220F207E1C
:103D60002093F20023E0969587952A95E1F78093BA
:103D7000F30030FF06C08091F00084608093F00073
:103D800009C0369690E004C081918093FA009F5F4D
:103D90009417D1F724960FB6F894DEBF0FBECDBFAF
:103DA000DF91CF9108951F93CF93DF93EC010E9491
:103DB000181B182F8F3018F080E090E01CC08295FF
:103DC000807F8093ED008091EE001092EE00CE0196
:103DD0000E94711E812F0E94541B9FB7F89481E0AE
:103DE000809398019FBF8091EF0080648093EF00E3
:103DF0001F5F812F90E0DF91CF911F9108951F9356
:103E0000CF93DF93EC0180919801882309F18CEC2A
:103E100097E00E942420009719F480E090E01CC0F5
:103E2000DC01FE0180E101900D928150E1F71FB7A6
:103E3000F89480919801882329F08CEC97E00E94F7
:103E4000722081E01FBF882319F081E090E004C058
:103E5000CE010E94D31E90E0DF91CF911F91089573
:103E6000CF93DF93CDB7DEB724970FB6F894DEBFBC
:103E70000FBECDBFAC019091EF00892F8F70FA017A
:103E80008583648194FF1DC08091F00089838091B7
:103E9000F1008A838091F2008B838091F3008C8300
:103EA00089819A81AB81BC8123E0B695A7959795CE
:103EB00087952A95D1F780839183A283B38362602B
:103EC00018C02091F20022952695277030E080914D
:103ED000F30090E073E0880F991F7A95E1F7822B49
:103EE000932BA0E0B0E0FA0180839183A283B38397
:103EF0006D7F64838091F000FA01648182FF03C0CA
:103F00006160648311C06E7FFA0164839A012A5F45
:103F10003F4FD90103C08091FA008D939A2F921BD5
:103F2000FA0185819817B8F38091F8009091F90013
:103F3000FA019787868724960FB6F894DEBF0FBEE6
:103F4000CDBFDF91CF910895EF92FF921F93CF9352
:103F5000DF937C010E94411C882321F1C0E0D0E066
:103F60001C2F8C2F8295807F8093ED008091EE0036
:103F700085FF14C08091EE001092EE00C7010E94F0
:103F8000301F8C2F0E94541B8091EF00807180683D
:103F90008093EF001F5F812F90E006C02196CF3005
:103FA000D105F1F680E090E0DF91CF911F91FF9075
:103FB000EF900895CF93DF93EC0182ED99E00E949A
:103FC0003E20009719F480E090E00DC0DE01FC0176
:103FD00080E101900D928150E1F782ED99E00E941D
:103FE00063208FEF90E0DF91CF9108953091EA0048
:103FF0002091EB00822F932F0895823020F480913E
:10400000D800886003C08091D800877F8093D80053
:104010000895FC018FB7F89493818FBF20E030E0C2
:10402000992311F421E030E0C9010895FC018FB714
:10403000F894238192818FBF40E050E0291710F05F
:1040400041E050E0CA010895CF93DF93EC010E9454
:104050001620882319F020E030E00CC08C81282F36
:1040600030E084E0220F331F8A95E1F7888199813F
:10407000280F391FC901DF91CF910895CF93DF93A6
:10408000EC010E940920882319F020E030E00CC0E8
:104090008D81282F30E094E0220F331F9A95E1F7AD
:1040A00088819981280F391FC901DF91CF91089527
:1040B000FC018FB7F8946283518340831482158288
:1040C00013828FBF0895FC012FB7F894838181502C
:1040D000838385818F5F85839281891708F015829C
:1040E0002FBF0895FC012FB7F89483818F5F8383DE
:1040F00084818F5F84839281891708F014822FBF97
:104100000895911118C080538A5028F0865C80620F
:1041100081568650B8F7089591110DC0803219F07C
:1041200089508550D0F70895911105C0803211F063
:104130008930D9F70895992788270895629FD0017B
:10414000739FF001829FE00DF11D649FE00DF11D52
:10415000929FF00D839FF00D749FF00D659FF00D01
:104160009927729FB00DE11DF91F639FB00DE11DEE
:10417000F91FBD01CF0111240895AA1BBB1B51E1FA
:1041800007C0AA1FBB1FA617B70710F0A61BB70BC7
:10419000881F991F5A95A9F780959095BC01CD016C
:1041A0000895A1E21A2EAA1BBB1BFD010DC0AA1F78
:1041B000BB1FEE1FFF1FA217B307E407F50720F090
:1041C000A21BB30BE40BF50B661F771F881F991F0B
:1041D0001A9469F760957095809590959B01AC0154
:1041E000BD01CF0108952F923F924F925F926F923F
:1041F0007F928F929F92AF92BF92CF92DF92EF9277
:10420000FF920F931F93CF93DF93CDB7DEB7CA1BF7
:10421000DB0B0FB6F894DEBF0FBECDBF09942A8822
:10422000398848885F846E847D848C849B84AA84CA
:10423000B984C884DF80EE80FD800C811B81AA8157
:10424000B981CE0FD11D0FB6F894DEBF0FBECDBF22
:06425000ED010895FFCF0F
:10425600010100000003000000003A062F060000DE
:1042660002010172747200E00901C90BE20904C976
:104276000BE70907380BEF0904380BF40903AF0BFA
:10428600F809052D0B2A0104B50FFE0901B50F2FFC
:104296000103560C330103520F000A051C0B060AD4
:0E42A60004250B0B0A047110100A07570B0EAB
:00000001FF
