:020000021000EC
:10E000000C944AF00C9469F00C9469F00C9469F04B
:10E010000C9469F00C9469F00C9469F00C9469F01C
:10E020000C9469F00C9469F00C9469F00C9469F00C
:10E030000C9469F00C9469F00C9469F00C9469F0FC
:10E040000C9469F00C9469F00C9469F00C9469F0EC
:10E050000C9469F00C9469F00C9469F00C9469F0DC
:10E060000C9469F00C9469F00C9469F00C9469F0CC
:10E070000C9469F00C9469F00C9469F00C9469F0BC
:10E080000C9469F00C9469F00C9469F00C9469F0AC
:10E090000C9469F011241FBECFEFD0E1DEBFCDBFDD
:10E0A00011E0A0E0B1E0EAEBF6EE01E00BBF02C048
:10E0B00007900D92A030B107D9F711E0A0E0B1E0D0
:10E0C00001C01D92A030B107E1F70E9477F00C94D7
:10E0D0005CF30C9400F0982F6699FECF8FEF81B916
:10E0E00092B9A09A0000A09811B882B908952F9211
:10E0F0003F924F925F926F927F928F929F92AF92D8
:10E10000BF92CF92DF92EF92FF920F931F93CF9324
:10E11000DF93CDB7DEB7C052D1400FB6F894DEBF63
:10E120000FBECDBF2D982D9A000080E000008F5FBC
:10E130008436E1F71D99B3C2579A5F9888E181BB95
:10E1400088ED80BB83E083BB82E084BB8DB18F739D
:10E150008DB98EB1806C8EB911B88FEF82B98824D9
:10E1600099245401222433242101C15EDE4F1982F7
:10E170001882CF51D1407724C25EDE4F1882CE5133
:10E18000D14080E040E050E06799FECFA1980000C8
:10E1900020B1A19A833071F1843028F4813089F064
:10E1A000823008F508C08530C1F1853050F18630E5
:10E1B00009F054C04FC02B3139F781E09BE1792E33
:10E1C000E3CF213041F0C25EDE4F3881CE51D140E5
:10E1D000231709F06FC27226C25EDE4F2883CE512C
:10E1E000D14082E0D1CF822F90E0582F4427722671
:10E1F00083E0CACF822F90E0482B592B722684E00F
:10E20000C3CF2E3009F056C2722685E0C15EDE4FC4
:10E2100019821882CF51D140B7CFE1E0F0E0EC0F86
:10E22000FD1FC15EDE4F68817981CF51D140E60F7D
:10E23000F71F20836F5F7F4FC15EDE4F7983688356
:10E24000CF51D14072266417750709F09DCFAB01FD
:10E2500086E09ACF271509F02DC203C0873009F058
:10E2600093CF2981233109F4FAC02431C0F4263038
:10E2700009F4C9C0273048F4223069F1233009F489
:10E280005EC0213009F0C0C143C0213109F469C02A
:10E29000223108F0B3C0203109F0B6C11CC02831CA
:10E2A00009F479C0293150F4253109F4D8C0253159
:10E2B00008F456C1263109F0A7C152C12A3109F428
:10E2C00062C02A3108F488C02B3109F451C02D31C5
:10E2D00009F09AC102C0662446C08D81803311F0D6
:10E2E00090E00AC08F81882311F49EE105C081303F
:10E2F00011F497E901C091E81A821B828D818C8309
:10E300008E818D839E831F8217E0E12EF12C81C1C7
:10E310001A8288E08B8381E48C8386E58D8382E595
:10E320008E8389E48F8383E5888780E589878FE5FD
:10E330008A8782E38B87BBE0EB2EF12C6AC18A814E
:10E34000813959F0823919F0803919F404C08AE012
:10E3500005C080E003C08FE001C082E01A828B8399
:10E3600049C0662463941A82A2E0EA2EF12C52C1BD
:10E370008D81882311F48EE128C0813011F487E962
:10E3800024C081E822C01A8289E0E1E0F0E08093B5
:10E39000570084911BC08B81803589F48C81883033
:10E3A00039F489E0E2E0F0E08093570084910DC0F9
:10E3B00089E0E0E0F0E080935700849106C089E0B6
:10E3C000E3E0F0E08093570084911A828B831C82F3
:10E3D000F4E0EF2EF12C1DC18D8199E0836CE1E01A
:10E3E000F0E0082E90935700E89507B600FCFDCFAB
:10E3F0001A821B82E3E0EE2EF12C0BC11A8222243A
:10E400003324210103C18A8190E0A0E0B0E0B82E5E
:10E41000AA24992488248B8190E0A0E0B0E0DC015C
:10E4200099278827882A992AAA2ABB2A8D8190E0D1
:10E43000A0E0B0E0882A992AAA2ABB2A8C8190E021
:10E44000A0E0B0E0BA2FA92F982F8827882A992A10
:10E45000AA2ABB2A880C991CAA1CBB1C7FC08A81D3
:10E4600090E0782F66278B8190E0682B792B233101
:10E4700009F04EC080E0281680EE380681E048069C
:10E4800080E0580690F483E0F10140925B008093B5
:10E490005700E89507B600FCFDCF20E031E040E0F2
:10E4A00050E0220E331E441E551E85017401DE010C
:10E4B0001B968C91FD012181129641E030E0322FB4
:10E4C000222790E0282B392B0901F70100935B00EC
:10E4D00040935700E895112422E030E040E050E0FE
:10E4E000E20EF31E041F151F6250704011F785E005
:10E4F000F401A0925B0080935700E89507B600FCFA
:10E50000FDCF81E180935700E8954701580126C06F
:10E51000FB01A50194018E01055F1F4F21BDBB27A3
:10E52000A52F942F832F82BD2F5F3F4F4F4F5F4FFB
:10E53000D8018D918D0180BDFA9AF99AF999FECF93
:10E54000319761F761507040CB01A0E0B0E00196D7
:10E55000A11DB11D880E991EAA1EBB1E1A8256C08F
:10E560008A8190E0782F66278B8190E0682B792B49
:10E570001A8289818431D9F49B018E010D5F1F4F6E
:10E58000ABBEF40187919691F8018083892F99277A
:10E5900081830E5F1F4F82E090E0A0E0B0E0880E24
:10E5A000991EAA1EBB1E2250304031F1E9CFFB015B
:10E5B000A50194018E010D5F1F4F21BDBB27A52F23
:10E5C000942F832F82BD2F5F3F4F4F4F5F4FF89A9D
:10E5D00080B5D8018D938D01319779F761507040E6
:10E5E000CB01A0E0B0E06F5F7F4F0196A11DB11D90
:10E5F000880E991EAA1EBB1E33E0E32EF12CE60EF8
:10E60000F71EF801108205C080EC8A8322E0E22E1A
:10E61000F12C66248BE10E946BF0C25EDE4F888194
:10E62000CE51D1400E946BF08F2D9927082F0E9468
:10E630006BF08E2D0E946BF08EE00E946BF085E1F6
:10E64000782EC25EDE4FF881CE51D1407F267E24E7
:10E6500070266E010894C11CD11C0AC0D6011D9100
:10E660006D01812F0E946BF071260894E108F1087A
:10E67000E114F10499F7872D0E946BF0662061F494
:10E68000C25EDE4FB881CE51D140BF5FC25EDE4F69
:10E69000B883CE51D14075CD579811BA10BA2D9884
:10E6A00081E180935700E8951F921F921F921F925D
:0AE6B0000895FFCF80E068CDFFCF92
:040000031000E00009
:00000001FF
